{"abi":[{"type":"constructor","inputs":[{"name":"_admin","type":"address","internalType":"address"}],"stateMutability":"nonpayable"},{"type":"function","name":"TIER_NEUTRAL","inputs":[],"outputs":[{"name":"","type":"uint8","internalType":"uint8"}],"stateMutability":"view"},{"type":"function","name":"TIER_TOXIC","inputs":[],"outputs":[{"name":"","type":"uint8","internalType":"uint8"}],"stateMutability":"view"},{"type":"function","name":"TIER_TRUSTED","inputs":[],"outputs":[{"name":"","type":"uint8","internalType":"uint8"}],"stateMutability":"view"},{"type":"function","name":"admin","inputs":[],"outputs":[{"name":"","type":"address","internalType":"address"}],"stateMutability":"view"},{"type":"function","name":"batchSetTiers","inputs":[{"name":"traders","type":"address[]","internalType":"address[]"},{"name":"tiers","type":"uint8[]","internalType":"uint8[]"}],"outputs":[],"stateMutability":"nonpayable"},{"type":"function","name":"getPassport","inputs":[{"name":"trader","type":"address","internalType":"address"}],"outputs":[{"name":"","type":"tuple","internalType":"struct PassportRegistry.Passport","components":[{"name":"tier","type":"uint8","internalType":"uint8"},{"name":"registered","type":"bool","internalType":"bool"},{"name":"registeredAt","type":"uint48","internalType":"uint48"},{"name":"updatedAt","type":"uint48","internalType":"uint48"}]}],"stateMutability":"view"},{"type":"function","name":"getTier","inputs":[{"name":"trader","type":"address","internalType":"address"}],"outputs":[{"name":"","type":"uint8","internalType":"uint8"}],"stateMutability":"view"},{"type":"function","name":"getTraderTier","inputs":[{"name":"trader","type":"address","internalType":"address"}],"outputs":[{"name":"","type":"uint8","internalType":"uint8"}],"stateMutability":"view"},{"type":"function","name":"hasActivePassport","inputs":[{"name":"trader","type":"address","internalType":"address"}],"outputs":[{"name":"","type":"bool","internalType":"bool"}],"stateMutability":"view"},{"type":"function","name":"hasPassport","inputs":[{"name":"trader","type":"address","internalType":"address"}],"outputs":[{"name":"","type":"bool","internalType":"bool"}],"stateMutability":"view"},{"type":"function","name":"selfRegister","inputs":[],"outputs":[],"stateMutability":"nonpayable"},{"type":"function","name":"setTier","inputs":[{"name":"trader","type":"address","internalType":"address"},{"name":"tier","type":"uint8","internalType":"uint8"}],"outputs":[],"stateMutability":"nonpayable"},{"type":"function","name":"transferAdmin","inputs":[{"name":"newAdmin","type":"address","internalType":"address"}],"outputs":[],"stateMutability":"nonpayable"},{"type":"event","name":"AdminTransferred","inputs":[{"name":"prev","type":"address","indexed":true,"internalType":"address"},{"name":"next","type":"address","indexed":true,"internalType":"address"}],"anonymous":false},{"type":"event","name":"PassportRegistered","inputs":[{"name":"trader","type":"address","indexed":true,"internalType":"address"}],"anonymous":false},{"type":"event","name":"TierUpdated","inputs":[{"name":"trader","type":"address","indexed":true,"internalType":"address"},{"name":"tier","type":"uint8","indexed":false,"internalType":"uint8"},{"name":"setBy","type":"address","indexed":true,"internalType":"address"}],"anonymous":false},{"type":"error","name":"AlreadyRegistered","inputs":[]},{"type":"error","name":"InvalidTier","inputs":[]},{"type":"error","name":"LengthMismatch","inputs":[]},{"type":"error","name":"NotAdmin","inputs":[]}],"bytecode":{"object":"0x6080604052348015600e575f80fd5b506040516109ef3803806109ef833981016040819052602b91604e565b5f80546001600160a01b0319166001600160a01b03929092169190911790556079565b5f60208284031215605d575f80fd5b81516001600160a01b03811681146072575f80fd5b9392505050565b610969806100865f395ff3fe608060405234801561000f575f80fd5b50600436106100cb575f3560e01c80638d37f18c11610088578063b82175eb11610063578063b82175eb146100f5578063d86a28bb1461026a578063e7c9f65014610272578063f851a44014610285575f80fd5b80638d37f18c1461022c57806393e2282d14610257578063b45aae521461022c575f80fd5b806331c6f7cb146100cf578063389a4b81146100ee5780634dc30e87146100f557806357a5893c14610135578063607e4e571461020f57806375829def14610217575b5f80fd5b6100d7600281565b60405160ff90911681526020015b60405180910390f35b6100d75f81565b6101256101033660046107f1565b6001600160a01b03165f90815260016020526040902054610100900460ff1690565b60405190151581526020016100e5565b6101c36101433660046107f1565b60408051608080820183525f808352602080840182905283850182905260609384018290526001600160a01b0395909516815260018552839020835191820184525460ff808216835261010082041615159482019490945265ffffffffffff620100008504811693820193909352600160401b9093049091169082015290565b6040516100e591905f60808201905060ff835116825260208301511515602083015265ffffffffffff604084015116604083015265ffffffffffff606084015116606083015292915050565b6100d7600181565b61022a6102253660046107f1565b6102af565b005b6100d761023a3660046107f1565b6001600160a01b03165f9081526001602052604090205460ff1690565b61022a610265366004610821565b610332565b61022a610470565b61022a61028036600461089a565b61056c565b5f54610297906001600160a01b031681565b6040516001600160a01b0390911681526020016100e5565b5f546001600160a01b031633146102d957604051637bfa4b9f60e01b815260040160405180910390fd5b5f80546040516001600160a01b03808516939216917ff8ccb027dfcd135e000e9d45e6cc2d662578a8825d4c45b5e32e0adf67e79ec691a35f80546001600160a01b0319166001600160a01b0392909216919091179055565b5f546001600160a01b0316331461035c57604051637bfa4b9f60e01b815260040160405180910390fd5b600260ff821611156103815760405163e142361760e01b815260040160405180910390fd5b6001600160a01b0382165f9081526001602052604090208054610100900460ff166103fe57805465ffffffffffff4216620100000267ffffffffffffff0019909116176101001781556040516001600160a01b038416907f728517d56ea69973d736502472713ded49e5bb8c0794c7292103885d11e51772905f90a25b805460ff83166dffffffffffff00000000000000ff199091168117600160401b4265ffffffffffff160217825560405190815233906001600160a01b038516907f301cabed8d820d5f7ca739f26423d24266874db33cdbe0f8b62639ea524e37549060200160405180910390a3505050565b335f90815260016020526040902054610100900460ff16156104a557604051630ea075bf60e21b815260040160405180910390fd5b604080516080810182525f8082526001602080840182815265ffffffffffff428116868801818152606088019182523380885295909452878620965187549351945191518316600160401b026dffffffffffff000000000000000019929093166201000002919091166dffffffffffffffffffffffff0000199415156101000261ffff1990941660ff929092169190911792909217929092161717909255915190917f728517d56ea69973d736502472713ded49e5bb8c0794c7292103885d11e5177291a2565b5f546001600160a01b0316331461059657604051637bfa4b9f60e01b815260040160405180910390fd5b8281146105b9576040516001621398b960e31b0319815260040160405180910390fd5b5f5b838110156107cf5760028383838181106105d7576105d7610906565b90506020020160208101906105ec919061091a565b60ff16111561060e5760405163e142361760e01b815260040160405180910390fd5b5f60015f87878581811061062457610624610906565b905060200201602081019061063991906107f1565b6001600160a01b0316815260208101919091526040015f208054909150610100900460ff166106e357805465ffffffffffff4216620100000267ffffffffffffff00199091161761010017815585858381811061069857610698610906565b90506020020160208101906106ad91906107f1565b6001600160a01b03167f728517d56ea69973d736502472713ded49e5bb8c0794c7292103885d11e5177260405160405180910390a25b8383838181106106f5576106f5610906565b905060200201602081019061070a919061091a565b815460ff919091166dffffffffffff00000000000000ff1990911617600160401b4265ffffffffffff16021781553386868481811061074b5761074b610906565b905060200201602081019061076091906107f1565b6001600160a01b03167f301cabed8d820d5f7ca739f26423d24266874db33cdbe0f8b62639ea524e375486868681811061079c5761079c610906565b90506020020160208101906107b1919061091a565b60405160ff909116815260200160405180910390a3506001016105bb565b5050505050565b80356001600160a01b03811681146107ec575f80fd5b919050565b5f60208284031215610801575f80fd5b61080a826107d6565b9392505050565b803560ff811681146107ec575f80fd5b5f8060408385031215610832575f80fd5b61083b836107d6565b915061084960208401610811565b90509250929050565b5f8083601f840112610862575f80fd5b50813567ffffffffffffffff811115610879575f80fd5b6020830191508360208260051b8501011115610893575f80fd5b9250929050565b5f805f80604085870312156108ad575f80fd5b843567ffffffffffffffff8111156108c3575f80fd5b6108cf87828801610852565b909550935050602085013567ffffffffffffffff8111156108ee575f80fd5b6108fa87828801610852565b95989497509550505050565b634e487b7160e01b5f52603260045260245ffd5b5f6020828403121561092a575f80fd5b61080a8261081156fea2646970667358221220b4da8dcdd2272303c771227b5fa47ab72cef916666b45705928645013da6511564736f6c634300081a0033","linkReferences":{}},"methodIdentifiers":{"TIER_NEUTRAL()":"389a4b81","TIER_TOXIC()":"31c6f7cb","TIER_TRUSTED()":"607e4e57","admin()":"f851a440","batchSetTiers(address[],uint8[])":"e7c9f650","getPassport(address)":"57a5893c","getTier(address)":"b45aae52","getTraderTier(address)":"8d37f18c","hasActivePassport(address)":"b82175eb","hasPassport(address)":"4dc30e87","selfRegister()":"d86a28bb","setTier(address,uint8)":"93e2282d","transferAdmin(address)":"75829def"},"id":44}