{"abi":[{"type":"constructor","inputs":[{"name":"_poolManager","type":"address","internalType":"contract IPoolManager"},{"name":"_registry","type":"address","internalType":"contract IPassportRegistry"}],"stateMutability":"nonpayable"},{"type":"function","name":"FEE_NEUTRAL","inputs":[],"outputs":[{"name":"","type":"uint24","internalType":"uint24"}],"stateMutability":"view"},{"type":"function","name":"FEE_TOXIC","inputs":[],"outputs":[{"name":"","type":"uint24","internalType":"uint24"}],"stateMutability":"view"},{"type":"function","name":"FEE_TRUSTED","inputs":[],"outputs":[{"name":"","type":"uint24","internalType":"uint24"}],"stateMutability":"view"},{"type":"function","name":"afterAddLiquidity","inputs":[{"name":"","type":"address","internalType":"address"},{"name":"","type":"tuple","internalType":"struct PoolKey","components":[{"name":"currency0","type":"address","internalType":"Currency"},{"name":"currency1","type":"address","internalType":"Currency"},{"name":"fee","type":"uint24","internalType":"uint24"},{"name":"tickSpacing","type":"int24","internalType":"int24"},{"name":"hooks","type":"address","internalType":"contract IHooks"}]},{"name":"","type":"tuple","internalType":"struct ModifyLiquidityParams","components":[{"name":"tickLower","type":"int24","internalType":"int24"},{"name":"tickUpper","type":"int24","internalType":"int24"},{"name":"liquidityDelta","type":"int256","internalType":"int256"},{"name":"salt","type":"bytes32","internalType":"bytes32"}]},{"name":"","type":"int256","internalType":"BalanceDelta"},{"name":"","type":"int256","internalType":"BalanceDelta"},{"name":"","type":"bytes","internalType":"bytes"}],"outputs":[{"name":"","type":"bytes4","internalType":"bytes4"},{"name":"","type":"int256","internalType":"BalanceDelta"}],"stateMutability":"pure"},{"type":"function","name":"afterDonate","inputs":[{"name":"","type":"address","internalType":"address"},{"name":"","type":"tuple","internalType":"struct PoolKey","components":[{"name":"currency0","type":"address","internalType":"Currency"},{"name":"currency1","type":"address","internalType":"Currency"},{"name":"fee","type":"uint24","internalType":"uint24"},{"name":"tickSpacing","type":"int24","internalType":"int24"},{"name":"hooks","type":"address","internalType":"contract IHooks"}]},{"name":"","type":"uint256","internalType":"uint256"},{"name":"","type":"uint256","internalType":"uint256"},{"name":"","type":"bytes","internalType":"bytes"}],"outputs":[{"name":"","type":"bytes4","internalType":"bytes4"}],"stateMutability":"pure"},{"type":"function","name":"afterInitialize","inputs":[{"name":"","type":"address","internalType":"address"},{"name":"","type":"tuple","internalType":"struct PoolKey","components":[{"name":"currency0","type":"address","internalType":"Currency"},{"name":"currency1","type":"address","internalType":"Currency"},{"name":"fee","type":"uint24","internalType":"uint24"},{"name":"tickSpacing","type":"int24","internalType":"int24"},{"name":"hooks","type":"address","internalType":"contract IHooks"}]},{"name":"","type":"uint160","internalType":"uint160"},{"name":"","type":"int24","internalType":"int24"}],"outputs":[{"name":"","type":"bytes4","internalType":"bytes4"}],"stateMutability":"pure"},{"type":"function","name":"afterRemoveLiquidity","inputs":[{"name":"","type":"address","internalType":"address"},{"name":"","type":"tuple","internalType":"struct PoolKey","components":[{"name":"currency0","type":"address","internalType":"Currency"},{"name":"currency1","type":"address","internalType":"Currency"},{"name":"fee","type":"uint24","internalType":"uint24"},{"name":"tickSpacing","type":"int24","internalType":"int24"},{"name":"hooks","type":"address","internalType":"contract IHooks"}]},{"name":"","type":"tuple","internalType":"struct ModifyLiquidityParams","components":[{"name":"tickLower","type":"int24","internalType":"int24"},{"name":"tickUpper","type":"int24","internalType":"int24"},{"name":"liquidityDelta","type":"int256","internalType":"int256"},{"name":"salt","type":"bytes32","internalType":"bytes32"}]},{"name":"","type":"int256","internalType":"BalanceDelta"},{"name":"","type":"int256","internalType":"BalanceDelta"},{"name":"","type":"bytes","internalType":"bytes"}],"outputs":[{"name":"","type":"bytes4","internalType":"bytes4"},{"name":"","type":"int256","internalType":"BalanceDelta"}],"stateMutability":"pure"},{"type":"function","name":"afterSwap","inputs":[{"name":"","type":"address","internalType":"address"},{"name":"","type":"tuple","internalType":"struct PoolKey","components":[{"name":"currency0","type":"address","internalType":"Currency"},{"name":"currency1","type":"address","internalType":"Currency"},{"name":"fee","type":"uint24","internalType":"uint24"},{"name":"tickSpacing","type":"int24","internalType":"int24"},{"name":"hooks","type":"address","internalType":"contract IHooks"}]},{"name":"","type":"tuple","internalType":"struct SwapParams","components":[{"name":"zeroForOne","type":"bool","internalType":"bool"},{"name":"amountSpecified","type":"int256","internalType":"int256"},{"name":"sqrtPriceLimitX96","type":"uint160","internalType":"uint160"}]},{"name":"","type":"int256","internalType":"BalanceDelta"},{"name":"","type":"bytes","internalType":"bytes"}],"outputs":[{"name":"","type":"bytes4","internalType":"bytes4"},{"name":"","type":"int128","internalType":"int128"}],"stateMutability":"pure"},{"type":"function","name":"beforeAddLiquidity","inputs":[{"name":"","type":"address","internalType":"address"},{"name":"","type":"tuple","internalType":"struct PoolKey","components":[{"name":"currency0","type":"address","internalType":"Currency"},{"name":"currency1","type":"address","internalType":"Currency"},{"name":"fee","type":"uint24","internalType":"uint24"},{"name":"tickSpacing","type":"int24","internalType":"int24"},{"name":"hooks","type":"address","internalType":"contract IHooks"}]},{"name":"","type":"tuple","internalType":"struct ModifyLiquidityParams","components":[{"name":"tickLower","type":"int24","internalType":"int24"},{"name":"tickUpper","type":"int24","internalType":"int24"},{"name":"liquidityDelta","type":"int256","internalType":"int256"},{"name":"salt","type":"bytes32","internalType":"bytes32"}]},{"name":"","type":"bytes","internalType":"bytes"}],"outputs":[{"name":"","type":"bytes4","internalType":"bytes4"}],"stateMutability":"pure"},{"type":"function","name":"beforeDonate","inputs":[{"name":"","type":"address","internalType":"address"},{"name":"","type":"tuple","internalType":"struct PoolKey","components":[{"name":"currency0","type":"address","internalType":"Currency"},{"name":"currency1","type":"address","internalType":"Currency"},{"name":"fee","type":"uint24","internalType":"uint24"},{"name":"tickSpacing","type":"int24","internalType":"int24"},{"name":"hooks","type":"address","internalType":"contract IHooks"}]},{"name":"","type":"uint256","internalType":"uint256"},{"name":"","type":"uint256","internalType":"uint256"},{"name":"","type":"bytes","internalType":"bytes"}],"outputs":[{"name":"","type":"bytes4","internalType":"bytes4"}],"stateMutability":"pure"},{"type":"function","name":"beforeInitialize","inputs":[{"name":"","type":"address","internalType":"address"},{"name":"","type":"tuple","internalType":"struct PoolKey","components":[{"name":"currency0","type":"address","internalType":"Currency"},{"name":"currency1","type":"address","internalType":"Currency"},{"name":"fee","type":"uint24","internalType":"uint24"},{"name":"tickSpacing","type":"int24","internalType":"int24"},{"name":"hooks","type":"address","internalType":"contract IHooks"}]},{"name":"","type":"uint160","internalType":"uint160"}],"outputs":[{"name":"","type":"bytes4","internalType":"bytes4"}],"stateMutability":"pure"},{"type":"function","name":"beforeRemoveLiquidity","inputs":[{"name":"","type":"address","internalType":"address"},{"name":"","type":"tuple","internalType":"struct PoolKey","components":[{"name":"currency0","type":"address","internalType":"Currency"},{"name":"currency1","type":"address","internalType":"Currency"},{"name":"fee","type":"uint24","internalType":"uint24"},{"name":"tickSpacing","type":"int24","internalType":"int24"},{"name":"hooks","type":"address","internalType":"contract IHooks"}]},{"name":"","type":"tuple","internalType":"struct ModifyLiquidityParams","components":[{"name":"tickLower","type":"int24","internalType":"int24"},{"name":"tickUpper","type":"int24","internalType":"int24"},{"name":"liquidityDelta","type":"int256","internalType":"int256"},{"name":"salt","type":"bytes32","internalType":"bytes32"}]},{"name":"","type":"bytes","internalType":"bytes"}],"outputs":[{"name":"","type":"bytes4","internalType":"bytes4"}],"stateMutability":"pure"},{"type":"function","name":"beforeSwap","inputs":[{"name":"","type":"address","internalType":"address"},{"name":"key","type":"tuple","internalType":"struct PoolKey","components":[{"name":"currency0","type":"address","internalType":"Currency"},{"name":"currency1","type":"address","internalType":"Currency"},{"name":"fee","type":"uint24","internalType":"uint24"},{"name":"tickSpacing","type":"int24","internalType":"int24"},{"name":"hooks","type":"address","internalType":"contract IHooks"}]},{"name":"params","type":"tuple","internalType":"struct SwapParams","components":[{"name":"zeroForOne","type":"bool","internalType":"bool"},{"name":"amountSpecified","type":"int256","internalType":"int256"},{"name":"sqrtPriceLimitX96","type":"uint160","internalType":"uint160"}]},{"name":"","type":"bytes","internalType":"bytes"}],"outputs":[{"name":"","type":"bytes4","internalType":"bytes4"},{"name":"","type":"int256","internalType":"BeforeSwapDelta"},{"name":"","type":"uint24","internalType":"uint24"}],"stateMutability":"nonpayable"},{"type":"function","name":"getTraderTier","inputs":[{"name":"trader","type":"address","internalType":"address"}],"outputs":[{"name":"","type":"uint8","internalType":"uint8"}],"stateMutability":"view"},{"type":"function","name":"hasActivePassport","inputs":[{"name":"trader","type":"address","internalType":"address"}],"outputs":[{"name":"","type":"bool","internalType":"bool"}],"stateMutability":"view"},{"type":"function","name":"poolManager","inputs":[],"outputs":[{"name":"","type":"address","internalType":"contract IPoolManager"}],"stateMutability":"view"},{"type":"function","name":"previewFee","inputs":[{"name":"trader","type":"address","internalType":"address"}],"outputs":[{"name":"fee","type":"uint24","internalType":"uint24"},{"name":"tier","type":"uint8","internalType":"uint8"},{"name":"hasPassport","type":"bool","internalType":"bool"}],"stateMutability":"view"},{"type":"function","name":"registry","inputs":[],"outputs":[{"name":"","type":"address","internalType":"contract IPassportRegistry"}],"stateMutability":"view"},{"type":"event","name":"SwapFeeApplied","inputs":[{"name":"poolId","type":"bytes32","indexed":true,"internalType":"bytes32"},{"name":"trader","type":"address","indexed":true,"internalType":"address"},{"name":"tier","type":"uint8","indexed":false,"internalType":"uint8"},{"name":"appliedFee","type":"uint24","indexed":false,"internalType":"uint24"},{"name":"amountSpecified","type":"int256","indexed":false,"internalType":"int256"},{"name":"hadPassport","type":"bool","indexed":false,"internalType":"bool"},{"name":"blockNumber","type":"uint256","indexed":false,"internalType":"uint256"}],"anonymous":false},{"type":"error","name":"NotPoolManager","inputs":[]}],"bytecode":{"object":"0x60c060405234801561000f575f80fd5b50604051610de8380380610de883398101604081905261002e9161005c565b6001600160a01b039182166080521660a052610094565b6001600160a01b0381168114610059575f80fd5b50565b5f806040838503121561006d575f80fd5b825161007881610045565b602084015190925061008981610045565b809150509250929050565b60805160a051610d026100e65f395f81816101f0015281816103ce01528181610463015281816105d80152818161066a015281816106fa015261078701525f81816102f701526103760152610d025ff3fe608060405234801561000f575f80fd5b5060043610610111575f3560e01c80639f063efc1161009e578063c112aff31161006e578063c112aff3146102b1578063dc02e4db146102e9578063dc4c90d3146102f2578063dc98354e14610319578063e1b4af6914610280575f80fd5b80639f063efc146101aa578063b47b2fb11461024f578063b6a8b0fa14610280578063b82175eb1461028e575f80fd5b8063575e24b4116100e4578063575e24b41461016c5780636c2bbe7e146101aa5780636fe7e6eb146101dd5780637b103999146101eb5780638d37f18c1461022a575f80fd5b806321d0ee7014610115578063259982e5146101155780633f8c00db146101465780635464fb7514610163575b5f80fd5b6101286101233660046108c9565b610327565b6040516001600160e01b031990911681526020015b60405180910390f35b61014f6103e881565b60405162ffffff909116815260200161013d565b61014f610bb881565b61017f61017a366004610950565b610368565b604080516001600160e01b03199094168452602084019290925262ffffff169082015260600161013d565b6101bd6101b83660046109aa565b610579565b604080516001600160e01b0319909316835260208301919091520161013d565b610128610123366004610a46565b6102127f000000000000000000000000000000000000000000000000000000000000000081565b6040516001600160a01b03909116815260200161013d565b61023d610238366004610a9d565b6105b7565b60405160ff909116815260200161013d565b61025d6101b8366004610abf565b604080516001600160e01b03199093168352600f9190910b60208301520161013d565b610128610123366004610b40565b6102a161029c366004610a9d565b610649565b604051901515815260200161013d565b6102c46102bf366004610a9d565b6106d5565b6040805162ffffff909416845260ff909216602084015215159082015260600161013d565b61014f611f4081565b6102127f000000000000000000000000000000000000000000000000000000000000000081565b610128610123366004610b9a565b60405162461bcd60e51b815260206004820152600f60248201526e1b9bdd081a5b5c1b195b595b9d1959608a1b60448201525f906064015b60405180910390fd5b5f8080336001600160a01b037f000000000000000000000000000000000000000000000000000000000000000016146103b45760405163570c108560e11b815260040160405180910390fd5b604051635a2d572960e11b81523260048201819052905f907f00000000000000000000000000000000000000000000000000000000000000006001600160a01b03169063b45aae5290602401602060405180830381865afa15801561041b573d5f803e3d5ffd5b505050506040513d601f19601f8201168201806040525081019061043f9190610be1565b604051634dc30e8760e01b81526001600160a01b0384811660048301529192505f917f00000000000000000000000000000000000000000000000000000000000000001690634dc30e8790602401602060405180830381865afa1580156104a8573d5f803e3d5ffd5b505050506040513d601f19601f820116820180604052508101906104cc9190610c01565b90505f6104d883610805565b90506001600160a01b0384166104fd6104f6368e90038e018e610c32565b60a0902090565b6040805160ff8716815262ffffff85166020808301919091528e013581830152851515606082015243608082015290517f10e1687f26a95e4ffaa4874fd6647ee7925cb17f696cfa866a2732d4c25f72599181900360a00190a36315d7892d60e21b96505f955062400000179350505050955095509592505050565b60405162461bcd60e51b815260206004820152600f60248201526e1b9bdd081a5b5c1b195b595b9d1959608a1b60448201525f90819060640161035f565b604051635a2d572960e11b81526001600160a01b0382811660048301525f917f00000000000000000000000000000000000000000000000000000000000000009091169063b45aae5290602401602060405180830381865afa15801561061f573d5f803e3d5ffd5b505050506040513d601f19601f820116820180604052508101906106439190610be1565b92915050565b604051634dc30e8760e01b81526001600160a01b0382811660048301525f917f000000000000000000000000000000000000000000000000000000000000000090911690634dc30e8790602401602060405180830381865afa1580156106b1573d5f803e3d5ffd5b505050506040513d601f19601f820116820180604052508101906106439190610c01565b604051635a2d572960e11b81526001600160a01b0382811660048301525f91829182917f00000000000000000000000000000000000000000000000000000000000000009091169063b45aae5290602401602060405180830381865afa158015610741573d5f803e3d5ffd5b505050506040513d601f19601f820116820180604052508101906107659190610be1565b604051634dc30e8760e01b81526001600160a01b0386811660048301529193507f000000000000000000000000000000000000000000000000000000000000000090911690634dc30e8790602401602060405180830381865afa1580156107ce573d5f803e3d5ffd5b505050506040513d601f19601f820116820180604052508101906107f29190610c01565b90506107fd82610805565b949193509150565b5f8160ff1660010361081a57506103e8919050565b8160ff1660020361082e5750611f40919050565b50610bb8919050565b6001600160a01b038116811461084b575f80fd5b50565b803561085981610837565b919050565b5f60a0828403121561086e575f80fd5b50919050565b5f6080828403121561086e575f80fd5b5f8083601f840112610894575f80fd5b50813567ffffffffffffffff8111156108ab575f80fd5b6020830191508360208285010111156108c2575f80fd5b9250929050565b5f805f805f61016086880312156108de575f80fd5b85356108e981610837565b94506108f8876020880161085e565b93506109078760c08801610874565b925061014086013567ffffffffffffffff811115610923575f80fd5b61092f88828901610884565b969995985093965092949392505050565b5f6060828403121561086e575f80fd5b5f805f805f6101408688031215610965575f80fd5b853561097081610837565b945061097f876020880161085e565b935061098e8760c08801610940565b925061012086013567ffffffffffffffff811115610923575f80fd5b5f805f805f805f6101a0888a0312156109c1575f80fd5b87356109cc81610837565b96506109db8960208a0161085e565b95506109ea8960c08a01610874565b94506101408801359350610160880135925061018088013567ffffffffffffffff811115610a16575f80fd5b610a228a828b01610884565b989b979a50959850939692959293505050565b8035600281900b8114610859575f80fd5b5f805f806101008587031215610a5a575f80fd5b8435610a6581610837565b9350610a74866020870161085e565b925060c0850135610a8481610837565b9150610a9260e08601610a35565b905092959194509250565b5f60208284031215610aad575f80fd5b8135610ab881610837565b9392505050565b5f805f805f806101608789031215610ad5575f80fd5b8635610ae081610837565b9550610aef886020890161085e565b9450610afe8860c08901610940565b9350610120870135925061014087013567ffffffffffffffff811115610b22575f80fd5b610b2e89828a01610884565b979a9699509497509295939492505050565b5f805f805f806101208789031215610b56575f80fd5b8635610b6181610837565b9550610b70886020890161085e565b945060c0870135935060e0870135925061010087013567ffffffffffffffff811115610b22575f80fd5b5f805f60e08486031215610bac575f80fd5b8335610bb781610837565b9250610bc6856020860161085e565b915060c0840135610bd681610837565b809150509250925092565b5f60208284031215610bf1575f80fd5b815160ff81168114610ab8575f80fd5b5f60208284031215610c11575f80fd5b81518015158114610ab8575f80fd5b803562ffffff81168114610859575f80fd5b5f60a0828403128015610c43575f80fd5b5060405160a0810167ffffffffffffffff81118282101715610c7357634e487b7160e01b5f52604160045260245ffd5b604052610c7f8361084e565b8152610c8d6020840161084e565b6020820152610c9e60408401610c20565b6040820152610caf60608401610a35565b6060820152610cc06080840161084e565b6080820152939250505056fea2646970667358221220be87377adc231a86e92dca246ec557665ea5672c03e85d469f5fa246c482a10f64736f6c634300081a0033","linkReferences":{}},"methodIdentifiers":{"FEE_NEUTRAL()":"5464fb75","FEE_TOXIC()":"dc02e4db","FEE_TRUSTED()":"3f8c00db","afterAddLiquidity(address,(address,address,uint24,int24,address),(int24,int24,int256,bytes32),int256,int256,bytes)":"9f063efc","afterDonate(address,(address,address,uint24,int24,address),uint256,uint256,bytes)":"e1b4af69","afterInitialize(address,(address,address,uint24,int24,address),uint160,int24)":"6fe7e6eb","afterRemoveLiquidity(address,(address,address,uint24,int24,address),(int24,int24,int256,bytes32),int256,int256,bytes)":"6c2bbe7e","afterSwap(address,(address,address,uint24,int24,address),(bool,int256,uint160),int256,bytes)":"b47b2fb1","beforeAddLiquidity(address,(address,address,uint24,int24,address),(int24,int24,int256,bytes32),bytes)":"259982e5","beforeDonate(address,(address,address,uint24,int24,address),uint256,uint256,bytes)":"b6a8b0fa","beforeInitialize(address,(address,address,uint24,int24,address),uint160)":"dc98354e","beforeRemoveLiquidity(address,(address,address,uint24,int24,address),(int24,int24,int256,bytes32),bytes)":"21d0ee70","beforeSwap(address,(address,address,uint24,int24,address),(bool,int256,uint160),bytes)":"575e24b4","getTraderTier(address)":"8d37f18c","hasActivePassport(address)":"b82175eb","poolManager()":"dc4c90d3","previewFee(address)":"c112aff3","registry()":"7b103999"},"id":45}